:060000000200160200558B
:1000130002005C758920D28AD28875A885758DE81F
:0F002300759850D28E1174754F6B754E3551D341
:0E003200B2A01166B2A01166B2A011667DC820
:0E00400012008D12026D120386DDF51200DE35
:0E004E001201AF116680E985504E1202D332C6
:10005C0085614F755000755100327B057AFA79FA3B
:10006C0000D9FDDAF9DBF52212033012033E74EEEF
:10007C00714E741E714E7145C27CD28DC27FC27D91
:0F008C002212033012033E74EE714E7440714E17
:10009B007145516312033012033E74EE714E7400BE
:1000AB00714E714512033012033E74EF714E71762F
:1000BB007164F56071767164F5617176716D71457E
:1000CB00F562E561C3B54F004008855051C3954FAC
:0F00DB00F5502212033012033E74D0714E7400A0
:1000EA00714E714512033012033E74D1714E71760E
:1000FA00716D7145F56312033012033E74D0714E6F
:10010A007401714E714512033012033E74D1714E5F
:10011A007176716D7145F56412033012033E74D025
:10012A00714E7402714E714512033012033E74D13E
:0F013A00714E7176716D543F7145F5651203304A
:1001490012033E74D0714E7404714E71451203301E
:0F01590012033E74D1714E7176716D7145F5666A
:1001680012033012033E74D0714E7405714E7145FE
:1001780012033012033E74D1714E7176716D541FA3
:100188007145F56712033012033E74D0714E740640
:10019800714E714512033012033E74D1714E71765F
:0F01A800716D7145F56822E5685153510E513361
:1001B700E5675153510E5133E5665153510E51299D
:1001C700E5655153510E511FE5645153510E511FAF
:1001D700E5635153510E5129E561513D31F55129DF
:1001E700C299E5532430F5993099FDB2A022C299FE
:1001F700ECF5993099FDC299EBF5993099FDC299C3
:0F020700EAF5993099FD22C299EAF5993099FDEF
:0F021600C299EBF5993099FD22C299743AF59986
:100225003099FD22C2997420F5993099FD22C29921
:0F023500742DF5993099FD2275F064842430FC06
:0F024400E5F075F00A842430FBE5F02430FA224F
:10025300F5F0540F2430FBE5F0C4540F2430FA2298
:100263007B327A4000DAFDDBF922E550C3B5540056
:1002730050057553058030C3B555005005755304BB
:0E0283008025C3B556005005755303801AC37D
:10029100B557005005755302800FC3B5580050057E
:1002A1007553018004C375530022E5508551F0C395
:0F02B100B5F0004007C395F0F5528007C5F0C3C4
:1002C00095F0F552C3B403005004C27D8004D27D82
:1002D000C27F22E54E75F00A84F554E54E75F00AAA
:0F02E00084F55AE54E75F00584255AF555E54E1F
:1002EF0075F00A84F55AE54E75F0058475F002A491
:0E02FF00255AF556E54E75F00A84F55AE54E7F
:0E030D0075F0058475F003A4255AF557E54EEA
:10031B0075F00A84F55AE54E75F0058475F004A462
:10032B00255AF55822D280D28122C281D280D28125
:10033B00C28022D281C280C28122C281C280D2817C
:10034B00D280227F08C281339280D281DFF7C281B3
:0F035B00D280D281A280C28122C280D281C2818F
:10036A00D28022D280D281C281D281227F08C281E8
:0F037A00D281A28033DFF7C281D280229003901C
:0D038900E55393F4F5A0227E60B69ECCDA19
:00000001FF
